:100000000C941B020C943A020C943A020C943A029F
:100010000C943A020C943A020C943A020C943A0270
:100020000C943A020C943A020C943A020C943A0260
:100030000C943A020C94A9430C943A020C943A02A0
:100040000C943A020C943A020C943A020C943A0240
:100050000C943A020C943A020C943A020C943A0230
:100060000C943A020C941E440C943A020C943A02FA
:100070000C943A020C943A020C943A020C943A0210
:100080000C9450840C943A020C943A020C943A0268
:100090000C944D440C943A020C943A020C943A029B
:1000A0000C943A020C943A020C943A020C943A02E0
:1000B0000C943A020C943A020C943A020C943A02D0
:1000C0000C943A020C943A020C943A020C943A02C0
:1000D0000C943A020C943A020C943A020C943A02B0
:1000E0000C943A020C94234C0C942D4C0C94194C07
:1000F0000C94654C0C94594C0C944F4C0C94434C00
:100100000C94374C0C943A020C943A020C943A0238
:100110000C943A020C943A020C943A020C943A026F
:10012000573350339433A333B133B8334933D833CF
:10013000E2334233033415344A34173556340C3520
:100140003B330C3534330C350835257325730A00E1
:100150004E657665722D7573656420737461636B8B
:10016000203E2025642062797465730A000A2D2DD3
:100170002D2D2D2D2D2D2D0A0020203C6E6F6E650E
:100180003E002920256C75730A002F2575202876DE
:10019000696120000A526F75746573205B257520B4
:1001A0006D61785D0A0020203C6E6F6E653E000A2E
:1001B000000A4E65696768626F7273205B2575205F
:1001C0006D61785D0A000A000A41646472657373A8
:1001D0006573205B2575206D61785D0A00257800C8
:1001E0003A003A3A004F6E6C696E650A00526F75BC
:1001F00074696E6720456E61626C65640A005250D6
:100200004C20456E61626C65640A0025732025737D
:100210002C206368616E6E656C202575202C206330
:100220006865636B207261746520257520487A20AB
:10023000747820706F7765722025750A00455549DE
:100240002D3634204D41433A2025782D25782D2513
:10025000782D25782D25782D25782D25782D257834
:100260000A0052616E646F6D204555493634206135
:100270006464726573732067656E6572617465642A
:100280000A000A2A2A2A2A2A2A2A426F6F74696EC9
:10029000672025732A2A2A2A2A2A2A0A000200000D
:1002A000FFFE00000341544D45474131323872662C
:1002B0006131006C6F63616C686F73740045455009
:1002C000524F4D20697320636F72727570742C20C9
:1002D000726577726974696E6720776974682064E3
:1002E000656661756C74732E0A00452025642E25A1
:1002F0006420636C6F636B20256C752063707520C0
:10030000256C75206C706D20256C752069727120CC
:10031000256C7520676C656420256C7520796C658B
:100320006420256C7520726C656420256C752074C2
:100330007820256C75206C697374656E20256C754A
:100340002073656E736F727320256C7520736572F0
:1003500069616C20256C750A00532025642E256484
:1003600020636C6F636B20256C7520747820256C7E
:100370007520727820256C752072747820256C7534
:100380002072727820256C75207265786D697420F2
:10039000256C752061636B747820256C75206E6FF9
:1003A00061636B747820256C752061636B727820B3
:1003B000256C752074696D65646F757420256C7586
:1003C0002062616461636B727820256C7520746FA4
:1003D0006F6C6F6E6720256C7520746F6F73686F1C
:1003E000727420256C752062616473796E63682075
:1003F000256C752062616463726320256C752063CF
:100400006F6E74656E74696F6E64726F7020256CA8
:10041000752073656E64696E6764726F7020256CF9
:1004200075206C6C747820256C75206C6C7278204B
:10043000256C750A000011241FBECFEFD1E4DEBF8A
:10044000CDBF16E0A0E0B2E0E4EAFEE101E00BBFC0
:1004500002C007900D92AC3EB107D9F711E3ACEEA4
:10046000B6E001C01D92A531B107E1F70E945B40E3
:100470000C94508F0C9400006D9A759808956D9AA5
:10048000759A08956C9A749808956C9A749A089560
:100490006D9A759A6C9A749A0895CF93DF93EC01D4
:1004A00088819981009721F08851944099F40CC07B
:1004B0000E9448020E94463E87EC92E00E94FF3D67
:1004C00087E992E00E94FF3D88E194E09983888368
:1004D00081E003C01982188283E0DF91CF910895F3
:1004E000AF92BF92CF92DF92EF92FF920F931F9342
:1004F000DF93CF93CDB7DEB7C456D0400FB6F89494
:10050000DEBF0FBECDBF6B01B42EA52E7E010894B9
:10051000E11CF11CC70160E072E00E944C8BCE012F
:10052000489668E172E00E944C8BCE01C29663E36C
:1005300072E00E944C8BF70101900020E9F78F01D7
:10054000015010400E191F098B2D9A2DB701A801DB
:100550000E94168B6091B8047091B904E091460432
:10056000F0914704C6010995E0915A04F0915B04AB
:10057000C6016B2D7A2DA8010995CC59DF4F0FB616
:10058000F894DEBF0FBECDBFCF91DF911F910F91C9
:10059000FF90EF90DF90CF90BF90AF900895AF9213
:1005A000BF92CF92DF92EF92FF920F931F93DF9350
:1005B000CF93CDB7DEB7C257D0400FB6F894DEBFA9
:1005C0000FBECDBF7C015B01D42EC52E1A821982CD
:1005D0001C821B82E0914004F09141040995813016
:1005E000910521F0049709F0C4C06EC000D000D07E
:1005F00000D0EDB7FEB731962FE0E22EF12CEC0ED5
:10060000FD1EADB7BEB71296FC92EE92119786E32F
:1006100092E0938382838DEF92E0958384830E949E
:10062000238C8C01EDB7FEB736960FB6F894FEBF5B
:100630000FBEEDBF8091EC06882349F4C701800FFF
:10064000911F69E472E00E944C8B005F1F4F809104
:10065000EC06813051F4CE010F96800F911F6AE5B0
:1006600072E00E944C8B015F1F4F9FE0E92EF12C3E
:10067000EC0EFD1EC701800F911F63E372E00E9424
:100680004C8BD7010D900020E9F78D0101501040EF
:100690000E191F098D2D9C2DB701A8010E94168BE4
:1006A0006091B8047091B904E0914604F091470458
:1006B000C5010995E0915A04F0915B04C5016D2DC7
:1006C0007C2DA80109955FC0C0906004D0906104A2
:1006D000C7016AE672E0AE014F5F5F4FF601099510
:1006E000592F082F192F0115110541F185E0E82E2A
:1006F000F12CEC0EFD1E69817A81C701402F0E940A
:10070000168B0E0D1F1DF8011082C7016FE672E0F7
:100710000E94438B009731F46C9A749881E0809327
:10072000EC0631C0C70162E772E00E94438B00977C
:1007300001F56C9A749A1092EC0625C0C70166E721
:1007400072E0AE014D5F5F4FF6010995592F082FFA
:10075000192F0115110569F02DEF32E06B817C81B5
:10076000C901402F0E94168B03501D4FD8011C92C7
:100770000AC06091740470917504E0914204F09194
:100780004304C5010995CE58DF4F0FB6F894DEBF7C
:100790000FBECDBFCF91DF911F910F91FF90EF90D2
:1007A000DF90CF90BF90AF900895019797FD11C053
:1007B0008530910570F4FC01EE0FFF1FE80FF91F63
:1007C000EE0FFF1FEA59FC4F208131814281538196
:1007D00004C020E030E040E050E0B901CA010895D3
:1007E000AB01BC01E6E6F3E020E030E080819181DE
:1007F000A281B3813696481759076A077B0769F4C7
:10080000F901EE0FFF1FE20FF31FEE0FFF1FEC5970
:10081000FC4F0190F081E02D07C02F5F3F4F253046
:10082000310521F7E0E0F0E0CF0108950F931F9329
:10083000DF93CF93CDB7DEB7A0970FB6F894DEBFA6
:100840000FBECDBF8C016150704077FD11C0653087
:10085000710570F4FB01EE0FFF1FE60FF71FEE0F9F
:10086000FF1FEA59FC4F208131814281538104C02E
:1008700020E030E040E050E08EEF90E89A8B898BEA
:100880001C8A1B8A1E8A1D8A188E1F8A82E092E1AA
:100890009A8F898F84E790E09C8F8B8FCA01AA275B
:1008A000BB279D8F8E8F3F8F28A38AEA9AEA9A836F
:1008B00089831C821B821E821D8218861F821A86D3
:1008C00019861C861B861E861D861F87088BCE01F7
:1008D000019660E8AE014F5E5F4F20E00E94EB2082
:1008E000A0960FB6F894DEBF0FBECDBFCF91DF91BB
:1008F0001F910F910895AF92BF92CF92DF92EF9226
:10090000FF920F931F93DF93CF93CDB7DEB7A097DE
:100910000FB6F894DEBF0FBECDBF019797FD11C093
:100920008530910570F4FC01EE0FFF1FE80FF91FF1
:10093000EE0FFF1FEA59FC4FA080B180C280D38028
:1009400003C0AA24BB2465016150704077FD11C02B
:100950006530710570F4FB01EE0FFF1FE60FF71F06
:10096000EE0FFF1FEA59FC4FE080F18002811381F6
:1009700003C0EE24FF2487018AEA9AEA9A838983D6
:100980001C821B821E821D8218861F8242E052E159
:100990005A87498724E730E03C872B87C601AA277E
:1009A000BB279D878E87BF86A88A8EEF90E89A8B9B
:1009B000898B1C8A1B8A1E8A1D8A188E1F8A5A8F51
:1009C000498F3C8F2B8FC801AA27BB279D8F8E8F05
:1009D000FF8EE8A2CE01019660E8AE014F5E5F4F48
:1009E00020E00E94EB20A0960FB6F894DEBF0FBE69
:1009F000CDBFCF91DF911F910F91FF90EF90DF90CE
:100A0000CF90BF90AF900895CF93DF938FEF9FEF7C
:100A100090933123809330234091D6135091D71374
:100A2000E4E6F3E020E030E08081918136962F5FAC
:100A30003F4F4817590729F430933123209330232F
:100A400003C02530310581F72091302330913123C7
:100A50008FEF2F3F3807A9F400D000D08EE093E04D
:100A6000ADB7BEB712969C938E93119714965C9374
:100A70004E9313970E947B8B0F900F900F900F90C7
:100A80008DC000D000D000D0EDB7FEB7319687E31F
:100A900093E0ADB7BEB712969C938E931197538394
:100AA0004283358324830E947B8B60913023709135
:100AB0003123EDB7FEB736960FB6F894FEBF0FBEE2
:100AC000EDBF61307105E9F482E090E062E070E032
:100AD0000E94160482E090E062E070E00E947B04D5
:100AE00083E090E062E070E00E947B0484E090E0AC
:100AF00062E070E00E947B0485E090E062E070E0DC
:100B00004BC0653071054CF56150704081E090E05C
:100B10000E94160460913023709131236F5F7F4FE4
:100B200082E090E00E941604C1E0D0E060913023A2
:100B300070913123C617D7071CF46150704005C06F
:100B40006C177D072CF46F5F7F4FCE010E947B04F2
:100B50002196C630D10551F721C065307105F1F4F9
:100B600081E090E064E070E00E94160481E090E093
:100B700064E070E00E947B0482E090E064E070E05A
:100B80000E947B0483E090E064E070E00E947B04BC
:100B900084E090E064E070E00E947B04DF91CF91FC
:100BA00008950F931F93DF93CF93CDB7DEB7609770
:100BB0000FB6F894DEBF0FBECDBF8AEA9AEA9A83D9
:100BC00089831C821B821E821D8218861F821A86C0
:100BD00019861C861B861E861D86188A1F868E0116
:100BE0000F5F1F4FC8016AE373E20E94031EC80132
:100BF00040E050E060E070E021E00E944E2160960D
:100C00000FB6F894DEBF0FBECDBFCF91DF911F911D
:100C10000F910895FC015381560F50933923272FCC
:100C200033274281420F40933823A181A093372379
:100C3000E081E0933623842F90E08217930748F4F5
:100C40008A2F8F5F80933723882319F4EF5FE09317
:100C50003623852F90E070708617970790F4842FC5
:100C60008F5F80933823882361F4809137238F5FCF
:100C700080933723882329F4809136238F5F8093D4
:100C8000362308959C0141505040460F571FFB01E9
:100C90000EC0708160E08181DB01A80FB11D2A0FB9
:100CA0003B1F2A173B0710F42F5F3F4F3296E41784
:100CB000F50778F3E417F50749F4908180E0280FF1
:100CC000391F2817390710F42F5F3F4FC9010895C6
:100CD0009C01AB0180E090E0B9010E944206282F00
:100CE000892F922F0895DF93CF9300D0CDB7DEB731
:100CF0003091462320E09091EE06291B3109909116
:100D00004723290F311D3A83298329813A81A9017B
:100D1000480F511DCA016AE473E240E250E00E94AC
:100D2000420649815A816091EE0670E066597C4D19
:100D30000E944206009719F42FEF3FEF02C0382FB0
:100D4000292FC9010F900F90CF91DF9108958AE369
:100D50000E947306089586E00E947306089581E15B
:100D60000E94730608950F931F93CF93DF93182F5C
:100D7000092F4091F1065091F206BCE24F5F5F4FA0
:100D80008DE74030580710F040E050E1342F252F18
:100D9000A0E00EC0AB9FF0011124E55BF74D85A1EB
:100DA000882329F0808991898217930739F3AF5FEF
:100DB000A23081F74093F1065093F2061092F006AC
:100DC000E0E0F0E020E03CE21AC0239FD0011124D3
:100DD000A55BB74D95968C919597882321F4209328
:100DE000F006FD0110C0873049F4309731F0969637
:100DF0009C91969786A1891708F4FD012F5F2230F8
:100E000020F32093F006309791F182E085A3809142
:100E1000F306808F8091F406818F8091F506828F92
:100E20008091F606838F148A158A168A178A84ECB5
:100E300094E0978F868F91A380A381E090E0958FB7
:100E4000848F17A281E086A383E084A312A280E1AD
:100E500083A3508B418B738B628BEF01212F302F3B
:100E6000C901DC0180E10D9009928150E1F7CF01C9
:100E7000DF91CF911F910F910895AC011092F00670
:100E800020E013C0E22FF0E0322F3F5FEE0FFF1F94
:100E9000E955F74D808191818417950729F42093B6
:100EA000F006118210820895232F243058F32093E6
:100EB000F0060895AC011092F00620E012C0E22F77
:100EC000F0E0322F3F5FEE0FFF1FE955F74D8081B5
:100ED0009181892B29F42093F00651834083089552
:100EE000232F243060F32093F0060895BC018091F5
:100EF000492890914A2844960E940A06E091492880
:100F0000F0914A2880913623848BE0914928F09112
:100F10004A2880913723858BE0914928F0914A280F
:100F200080913823868BE0914928F0914A2880915E
:100F30003923878B0895282F892F922F0895EF92B8
:100F4000FF920F931F939C0144275527F22EE32E07
:100F500000E010E0362F272F40E050E0A9013327B2
:100F60002227E22AF32A042B152BB701C8011F916F
:100F70000F91FF90EF900895FC0140913423509120
:100F8000352322E438E2241B350B621773070CF477
:100F90009B011216130664F42093AF283093B028F7
:100FA000E417F50729F0CA01BF01A9010E94168BB9
:100FB00008951F9382E08093EF061091EE06612F53
:100FC00070E0DB01A659BC4D4DC0FA01E60FF71FDA
:100FD000E659FC4D8081813009F43FC0813018F022
:100FE0008336C9F402C02F5F3BC0CA010E948569E5
:100FF000892B09F04BC09091EF068091EE06E92F06
:10100000F0E0E80FF11DE659FC4D8181980F9E5FDD
:101010009093EF0639C090E0807C90708038910505
:1010200059F0803C910521F080349105B1F42EC037
:1010300080915A238F3F51F130E040E050E0210F82
:10104000311D411D511D285D3F4F4F4F5F4F84E0C3
:1010500062E00E945A1782E01AC08181280F2E5F39
:101060002093EF062091EF06422F50E011968C91CD
:10107000119790E0F3E0880F991FFA95E1F7079632
:10108000841795070CF0A1CF80E001C081E01F918B
:1010900008950F931F93CF93DF938C012091F10656
:1010A0003091F206C9E1D0E02F5F3F4F8DE720304D
:1010B000380710F020E030E1522F432FA0E011C09C
:1010C0008A2F90E08C9FF0018D9FF00D9C9FF00D7A
:1010D0001124EF54F74D80899189AF5F84179507EC
:1010E00019F3A53069F72093F1063093F2061092B8
:1010F000F00640E0A9E1B0E01CC0542F5F5F842FF0
:1011000090E08A9FF0018B9FF00D9A9FF00D1124C3
:10111000EF54F74D80899189892B51F44093F00663
:1011200089E1489FD0011124AF54B74D49F427C03D
:10113000452F453010F34093F006A0E0B0E01FC00B
:1011400050963C93509751962C93519753967C937D
:101150006E9352970115110531F480E1ED0119925A
:101160008A95E9F707C0ED01F80180E10190099245
:101170008150E1F780913C2954968C935497CD018E
:10118000DF91CF911F910F9108958091EE068823F2
:1011900089F1409132235091332390E0BC01685D86
:1011A0007F4F4617570738F41092EE0610923323FC
:1011B0001092322308956E5B7C4D48525040481B7C
:1011C000590B8AE693E20E941F8B2091EE068091D4
:1011D000322390913323821B910990933323809380
:1011E000322388979093462388968852809347238A
:1011F0001092EE060895EF92FF920F931F93CF93F4
:10120000DF93C0914928D0914A28843009F4A8C3BB
:101210002EE733E230934828209347283093352334
:1012200020933423833099F48DA1282F30E02F7040
:1012300030702330310529F48C8D9D8D892B09F474
:1012400096C02230310511F00C94E31182C0823037
:1012500009F091C010923323109232231092B028DB
:101260001092AF288091F6068F5F8093F606882350
:1012700099F48091F5068F5F8093F506882361F4D9
:101280008091F4068F5F8093F406882329F480917F
:10129000F3068F5F8093F3062DA1273011F02530E0
:1012A00051F48EA18F5F8EA3883711F00C94E31157
:1012B0001DA20C94E311222311F40C94E3118C8DE4
:1012C0009D8D892B09F44EC08EA181508EA38F5F16
:1012D00011F00C94E3113FA1383029F02150223055
:1012E00048F4353039F41DA280E8809342280E94EA
:1012F0009C1240C7353010F080E307C083E090E0D7
:1013000002C0880F991F3A95E2F78EA38FA18F5FD5
:101310008FA38DA190E08F70907083309105E1F0E4
:10132000843091054CF48130910509F4FAC4029798
:1013300011F00C94E3110DC08630910509F429C712
:101340008830910509F425C7049711F00C94E31136
:1013500020C710927723E8C484E0809342280E943B
:101360009C1240C72F70233011F00C94E31188E0D9
:1013700080934228F3C6853021F5E0914528F0910D
:10138000462880899189892B11F40C94E3111092DD
:101390004A2810924928C9010C97909348288093B5
:1013A000472890933523809334231092B0281092CD
:1013B000AF28109233231092322388E08093422882
:1013C000CDC2E901EC9780914223807F803611F0F5
:1013D0000C94E3119091462380E020914723AC01C7
:1013E000420F511D9A01809132239091332384172B
:1013F000950708F4E8C7285D3F4F309333232093C7
:10140000322380914A238F3F09F4DDC7CE0106962F
:1014100090934428809343281092EE061092ED0694
:1014200080914823882309F581E08093ED060E948E
:10143000D907813009F4C7C7813018F08230A9F488
:10144000CAC72091EE06E22FF0E0CF0186599C4DED
:101450009093442880934328285FFC018181880F62
:10146000880F880F280F2093EE068AE593E20E94EA
:101470001620892B09F01CC18AE593E20E94851F82
:10148000892B09F015C120915A232F3F09F495C0EB
:101490002E3F29F480915B23803809F48EC080911F
:1014A0004A238E3F29F480914B23803809F485C06C
:1014B00080914A2390914B23892B59F580914C239D
:1014C00090914D23892B29F580914E2390914F23A4
:1014D000892BF9F48091502390915123892BC9F4E1
:1014E0008091522390915323892B99F48091542316
:1014F00090915523892B69F480915623909157231D
:10150000892B39F48091582390915923892B09F420
:1015100054C080915A2390915B23892B61F580916F
:101520005C2390915D23892B31F580915E2390910E
:101530005F23892B01F58091602390916123892B92
:10154000D1F48091622390916323892BA1F480913F
:10155000642390916523892B71F480916623909187
:101560006723892B41F480916823882321F480919B
:101570006923813011F1809132239091332381507E
:10158000954038F082E060E020E035E040E050E057
:101590000AC080914923823048F483E060E020E073
:1015A00030E040E050E00E945A1715C70E946B6A75
:1015B0008091492381508F830EC780914A238E3FAB
:1015C00009F001C780914B23803809F0FCC6809157
:1015D0004A2390914B23892B59F580914C2390916C
:1015E0004D23892B29F580914E2390914F23892BF0
:1015F000F9F48091502390915123892BC9F4809163
:10160000522390915323892B99F4809154239091E4
:101610005523892B69F48091562390915723892B68
:1016200039F48091582390915923892B09F4CBC622
:1016300080915A2390915B23892B69F580915C23DB
:1016400090915D23892B39F580915E2390915F23E2
:10165000892B09F58091602390916123892BD9F41E
:101660008091622390916323892BA9F48091642354
:1016700090916523892B79F480916623909167235B
:10168000892B49F480916823882329F48091692368
:10169000813009F498C62F3F09F495C68AE593E294
:1016A0000E94841E882309F08EC681E062E077CF15
:1016B000E0914328F091442880818B3209F44BC09B
:1016C0008C3248F4863009F4A3C1813109F4B6C0E4
:1016D000882389F06BC08A3309F472C08B3320F4FD
:1016E0008C3209F063C06FC68B3309F46CC68C333F
:1016F00009F05CC006C08091ED0680FD57C0816096
:1017000009C08091ED0681FF04C086FD4FC0806452
:1017100001C082608093ED060E94D907813009F4F0
:1017200052C6813018F0823019F655C62091EE0667
:10173000E22FF0E0CF0186599C4D9093442880938E
:101740004328285FFC018181880F880F880F280FAC
:101750002093EE06ADCF8091ED0682FD27C0846018
:101760008093ED069091EE06E92FF0E0DF01A65997
:10177000BC4D13968C911397882349F0BA969F011C
:10178000442737FD4095542F84E060E00CCFB093A0
:101790004428A0934328985FE659FC4D8181880F27
:1017A000880F880F980F9093EE0682CFE254F34291
:1017B0009F01442737FD4095542F84E061E0F3CE2C
:1017C0000E94A7068F5F9F4F09F0FDC5E091EE06CE
:1017D000F0E0EE5BFC4D80A50E94ED12E091EE067C
:1017E000F0E0EE5BFC4D80A58638E1F0873838F4F8
:1017F0008138C1F08538B1F08038A1F410C0883844
:1018000041F0883818F08B3969F406C00E949F1A9D
:101810000DC00E9449180AC00E944F6207C00E9472
:10182000A51604C0109233231092322380913223E4
:1018300090913323892B09F4C6C5CDC50E94C508F4
:101840008091322390913323C097909333238093D8
:10185000322382E793E2909348288093472880912F
:10186000702390917123892B31F00E94AF068F5F16
:101870009F4F09F0A8C580916C2390916D23892B0F
:1018800009F4A1C581EB98E29093462880934528FE
:1018900046C02889398921153105E1F180916C23F1
:1018A00090916D2382179307A9F52A893B89211509
:1018B000310539F080916A2390916B238217930749
:1018C00049F588819981892BE1F48A819B81892B53
:1018D000C1F48C819D81892BA1F48E819F81892BFC
:1018E00081F488859985892B61F48A859B85892B6C
:1018F00041F48C859D85892B21F48E859F85892BCC
:10190000C1F08AE493E2BE0140E150E00E94098BFD
:10191000009779F06996D0934628C0934528C091E6
:101920004528D091462829E2CE32D20708F4B1CF1B
:101930004AC510924A281092492882E08093422892
:1019400082E793E290934828809347289093352329
:10195000809334231092B0281092AF280E949C12DA
:101960002091AF283091B0282115310509F42BC5FD
:10197000C901C096909333238093322342E453E20B
:10198000285F3F4F30934623885280934723E0914E
:101990004528F091462884898093492381E18093EA
:1019A0004823EA01A8963C832D831F821E828089EA
:1019B000918990936B2380936A23828993899B8377
:1019C0008A83DA0158962091452830914628C9012A
:1019D000FC0180E101900D928150E1F78AE493E2ED
:1019E0006AE573E20E94641D8EE793E290934828B3
:1019F000809347280E94AF06809590959F838E83A1
:101A0000892B09F0D6C48FEF9FEF9F838E83D1C4BB
:101A10000E94C5080E94AB068F5F9F4F09F0D3C498
:101A200000916C2310916D230115110509F4CBC4AD
:101A3000E0906A23F0906B23E114F10409F4C3C42D
:101A4000CBE4D8E28DA18823A1F088899989081771
:101A5000190779F48A899B89E816F90651F48AE412
:101A600093E2BE0140E150E00E94098B009709F427
:101A700073C1AC9658E2C737D50721F318F38091AC
:101A800077238F738230F1F41093F9060093F806F0
:101A90001092F00613C0E42FF0E0EE0FFF1FE9559F
:101AA000F74D2091F8063091F90680819181281731
:101AB000390709F46FC04F5F4093F0064091F0067C
:101AC000443048F38091772382FD7DC484E1809384
:101AD00077238CE390E0909333238093322380E547
:101AE0008093762390917123809175238093712345
:101AF00030917023809174238093702330937423EA
:101B000040916F238091732380936F2340937323BD
:101B100020916E232093F0068091722380936E2390
:101B2000209372239F5F90937523992379F4832FD9
:101B30008F5F80937423882349F4842F8F5F809371
:101B40007323882319F42F5F2093722320916A2333
:101B500030916B233093F9062093F80680916C2323
:101B600090916D2390936B2380936A2330936D2320
:101B700020936C23EAE5F3E2DF01509780E10D90BA
:101B800001928150E1F78AE493E26AE573E20E94F0
:101B9000641DF1C31092F006C0E0D0E04CE250E0CA
:101BA0003CE225C0822F90E0849FF001859FF00DDC
:101BB000949FF00D1124E55BF74D85A1882339F43E
:101BC0008CE2289FE0011124C55BD74D14C08730FB
:101BD00059F4209721F096A18EA1891728F4239F0C
:101BE000E0011124C55BD74D2F5F2093F0062091B3
:101BF000F0062230B8F2209709F4E5C3D0934A28C2
:101C0000C093492883E08EA38CA31AA284E08BA3FF
:101C10001FA280916C2390916D23998B888B80916A
:101C20006A2390916B239B8B8A8BDE01EAE4F3E2BB
:101C300080E101900D928150E1F781E08DA38091C8
:101C4000F306888F8091F406898F8091F5068A8F3C
:101C50008091F6068B8F81E090E09D8F8C8F809134
:101C600071238F8B809170238E8B80916F238D8B4E
:101C700080916E238C8B81E090E00E9476078091AA
:101C8000762390E0807F9070813591050CF449C0F7
:101C90001092F00634C0F901EE5BFC4D84AD8093E8
:101CA000F7068823F1F1813021F44F5F4093F0066D
:101CB00026C08230C1F485AD8430A9F436AD20E071
:101CC00087AD90E0822B932B9093F9068093F806D2
:101CD000E4E0853C9E0710F084EC94E09F8F8E8FAB
:101CE00099A388A31EC08091F006E82FF0E0E15888
:101CF000FC4DE081EE23A9F0E80FE093F00640915F
:101D0000F006242F30E08091762382958F7090E04A
:101D10000597880F991F880F991F281739070CF40A
:101D2000BACF80E18093772380917723826080937C
:101D3000772382E080937E2384E080937F238093C7
:101D4000802384EC8093812380E490E0909333237C
:101D50008093322380E6CAC2D0934A28C093492890
:101D60001092422880917723282F30E082FF03C011
:101D70001DA280E264C28091762382958F70880FC5
:101D8000880F8093F00640913223509133234852BC
:101D90005040481B510950933323409332238DA167
:101DA00090E08F7090708230910531F42F73307015
:101DB0002231310541F429C0019729F42F73307085
:101DC0002230310511F1452B39F48091772390E0D1
:101DD00083709070892BC9F090916E238C8998172D
:101DE00079F490916F238D89981751F49091702315
:101DF0008E89981729F4909171238F89981729F06B
:101E00008091772381FD8DCF67C28091772384FFF6
:101E100051C06C8D7D8D6115710509F44BC0CE01EB
:101E200048960E940A062091722380913623281733
:101E300009F040C090917323809137239817D1F512
:101E400090917423809138239817A1F59091752370
:101E500080913923981771F5288F80913723898FC6
:101E6000809138238A8F809139238B8F8FA188238B
:101E7000D1F42AA19CA18EA1981B822F86958695CC
:101E80008695981B392F320F3AA38BA1282F2695C0
:101E90002695821B97FD9195890F8BA336953695D4
:101EA0003695830F8CA381E0809342288CA18EA36A
:101EB0001D8E1C8E8DA1282F30E0C9018F7090706F
:101EC0008430910509F4C0C1853091055CF48230FD
:101ED0009105D9F1833091050CF0BAC0019709F052
:101EE00072C210C08630910509F4EEC186309105AA
:101EF0000CF4CAC18730910509F4EEC1089709F0C6
:101F000062C297C18091422880FF18C083E08DA3F0
:101F100080E4809342281D8E1C8E209132233091C4
:101F200033232115310509F415C1809142288260BF
:101F300080934228C9010E9476070CC180917723C3
:101F40008F73823009F03FC2ECCE8091422880FF2F
:101F500074C0809177238F73823109F06EC08091B5
:101F6000762390E0807F9070813591050CF449C014
:101F70001092F00634C0F901EE5BFC4D84AD809305
:101F8000F7068823F1F1813021F44F5F4093F0068A
:101F900026C08230C1F485AD8430A9F436AD20E08E
:101FA00087AD90E0822B932B9093F9068093F806EF
:101FB000F4E0853C9F0710F084EC94E09F8F8E8FB7
:101FC00099A388A31EC08091F006E82FF0E0E158A5
:101FD000FC4DE081EE23A9F0E80FE093F00640917C
:101FE000F006242F30E08091762382958F7090E068
:101FF0000597880F991F880F991F281739070CF428
:10200000BACF83E08DA380916E238C8B80916F2358
:102010008D8B809170238E8B809171238F8B81E0CB
:1020200090E00E94760782E4809342281D8E1C8EE9
:1020300010923323109232238DC080E28093422885
:102040000E949C12E0914928F0914A2815A23ACDAD
:102050008091772380FF25C024FD23C08C8D9D8D2A
:10206000892B09F0B0C180913223909133230196DE
:102070000E94760720914228822F80618093422817
:102080008091322390913323892B19F02261209380
:1020900042280E949C1281E090E09D8F8C8F88E006
:1020A00076C085FF21C060917C23362F20E04091CF
:1020B0007D2350E0242B352B809147289091482890
:1020C000820F931F9093482880934728962F80E093
:1020D000842B952B2091322330913323281B390BED
:1020E00030933323209332232091322330913323B2
:1020F0002115310559F08DA184FD08C08091422839
:10210000826080934228C9010E94760790917823CB
:1021100080E020917923820F911D9093F90680939E
:10212000F80628A139A12817390710F0892B21F4C6
:102130003093F9062093F8068091F8069091F906FD
:102140009F8F8E8F8091422890E083709070892BB2
:1021500009F439C11092B0281092AF280E949C1245
:1021600080914228282F85FF07C01092B028109236
:10217000AF281DA284E1B1C084FF0DC01092B02829
:102180001092AF2881E090E09D8F8C8F84E08DA32A
:102190001FA281E1A2C08091AF289091B028892B25
:1021A00001F120FF02C01D8E1C8E8C8D9D8D00972D
:1021B000A1F42E8D3F8D8091AF289091B0282817E3
:1021C000390720F43093B0282093AF288091AF28AE
:1021D0009091B0289D8F8C8F04C09093B0288093ED
:1021E000AF281FA2809134239091352390934828E3
:1021F000809347288091AF289091B028892B59F07F
:102200008C8D9D8D009739F0CC96909333238093DD
:10221000322388E10BC08091422881FFD4C08CE337
:1022200090E0909333238093322380E1809377234F
:102230005CC08091422880FFC6C01DA280E18093CF
:1022400042280E949C12BFC0809132239091332378
:10225000009711F00E947607809177239091422891
:1022600080FF0BC090FF06C087E08DA31EA21D8ECD
:102270001C8E19C086E08DA316C090FF1EC085E09D
:102280008DA31D8E1C8E9FC080913223909133238D
:10229000009711F00E9476078091772380FF0DC090
:1022A00087E08DA31EA281E090E00E94760780E186
:1022B000809342280E949C120FC0809132239091FB
:1022C0003323892B49F47FC08091422880FF7BC053
:1022D00087E08DA31EA277C080E1809377238CE3F3
:1022E00090E0909333238093322380E5809376238C
:1022F0008C89809372238D89809373238E89809338
:1023000074238F8980937523888D80936E23898DA4
:1023100080936F238A8D809370238B8D809371239C
:10232000E2E4F3E286E086838889998990936B23BF
:1023300080936A238A899B8990936D2380936C2371
:102340007896DE0180E10D9001928150E1F78AE4F8
:1023500093E26AE573E20E94641D8DA184FF05C0CB
:10236000109279231092782306C084E0809378231A
:1023700084EC8093792380913C2980934923809138
:102380003223909133238897909346238091322370
:102390008852809347230AE613E2F801138A128ACF
:1023A000118A108A0E94AB0680959095F801918B56
:1023B000808B80E680934223109243231092452322
:1023C0001092442308C010923323109232231092AB
:1023D000EE061092ED0610924228DF91CF911F91E8
:1023E0000F91FF90EF9008950E948D2480E009C026
:1023F000E82FF0E0EE0FFF1FE955F74D1182108234
:102400008F5F8430A8F320E04CE250E00DC0822FB3
:1024100090E0849FF001859FF00D949FF00D1124B2
:10242000E55BF74D15A22F5F223088F380E094E042
:102430009093F2068093F10620E049E150E00EC04F
:10244000822F90E0849FF001859FF00D949FF00D06
:102450001124EF54F74D118A108A2F5F253080F335
:102460002093F0060895E0911907F0911A0730972C
:1024700011F480E008950995089590931A078093C8
:1024800019070895FC018091C7179091C81791A76B
:1024900080A773A762A70895FC018091C717909148
:1024A000C817968B858B708F678B08959C018091E0
:1024B000A3289091A428892B11F081E008958091A0
:1024C000C7179091C8179093A4288093A32830939E
:1024D000A6282093A52880E00895AC011092FE065E
:1024E0006091C7177091C817E7E0F7E020E014C0CB
:1024F000808191818417950769F482819381861781
:10250000970741F42093FE0611821082CA010E94AF
:102510003D07089534962F5F243050F32093FE0634
:1025200008958FEF96E00E941D6F892B21F08FEFA9
:1025300096E00E946E700895CF93DF93A091492892
:10254000B0914A28109719F0ED01A89605C0C091E6
:102550004528D091462865968091422886FF22C062
:102560001092FC06E7E0F7E040E016C020813181E0
:1025700050968D919C9151972817390759F4828173
:102580009381009739F04093FC06998388831B82DE
:102590001A8206C034964F5F443040F34093FC06E5
:1025A0000E94911288819981009731F04A815B8164
:1025B00060912E290E946E6CDF91CF9108958FE873
:1025C00093E062E040E050E00E946E6C1092332392
:1025D000109232231092EE060895DF93CF930F925C
:1025E000CDB7DEB789838091A3289091A428009766
:1025F00039F060912F29AE014F5F5F4F0E946E6CE2
:102600000F90CF91DF910895AC018FE893E060E0E7
:102610000E944A6C0895AC018FE893E061E00E944B
:102620004A6C08950F931F93CF93DF9380913223C9
:1026300090913323009709F411C18150954008F01F
:10264000FEC00AE513E280915A2390915B23892B07
:1026500059F580915C2390915D23892B29F5809118
:102660005E2390915F23892BF9F4809160239091F0
:102670006123892BC9F48091622390916323892B74
:1026800099F48091642390916523892B69F480915A
:10269000662390916723892B39F480916823909168
:1026A0006923892B09F4CBC080915A238F3F09F409
:1026B000CBC08AE593E20E94841E882379F48AE5E0
:1026C00093E20E94431E009731F40E945A228C012B
:1026D000009721F4B4C08C010D5E1F4FC8010E9409
:1026E000006A892B09F0ABC0C8010E943122EC01BD
:1026F000009709F051C0C80160E070E040E020E0C0
:102700000E94A4228C01009709F499C0EC01AE96B6
:10271000CE0160E072E00E94AF1C892B99F0CE01DF
:102720000E94621C22E433E2409132235091332311
:10273000B9010E94168B6091322370913323CE0130
:102740000E947E1C8AE493E20E941620A8014F5F3B
:102750005F4F892B19F08AE493E202C080E090E099
:1027600060E070E00E94B619609145297091462999
:10277000809147299091482928EE33E040E050E0CD
:102780000E946F8AC8018196BA01A9010E94317323
:1027900081E0F80183A758C08DA58823E9F4AE969F
:1027A000CE0160E072E00E94AF1C892B09F447C0A3
:1027B000CE010E94621C22E433E240913223509108
:1027C0003323B9010E94168B609132237091332319
:1027D000CE010E947E1C33C0823059F483E08DA765
:1027E000CE01499645E050E060E070E00E94317310
:1027F0001BA68E010F5E1F4FC8010E943312AE96BA
:10280000CE010E946E1C892BD1F0CE010E946E1C5D
:102810009093332380933223CE010E94621CBC012B
:1028200022E433E24091322350913323C9010E94C4
:10283000168BCE010E94891CC8010E94331210928F
:102840003323109232230AC080E090E00E943312BA
:1028500010923323109232231092EE06DF91CF9123
:102860001F910F910895DF92EF92FF920F931F93A4
:10287000CF93DF937C018A01FC01808191810097D5
:1028800029F08050934009F003C132C080E00BC0B2
:10289000E82FF0E0EE0FFF1FEE0FFF1FE95FF84F8C
:1028A000118210828F5F843098F38093FA068091B2
:1028B000C7179091C81790931807809317070E9425
:1028C000006B80932E290E94006B80932F298FEF3D
:1028D00096E060E470E00E9484700E94F4110E940F
:1028E0006D5380E093E0F7019183808381E0D4C051
:1028F000623009F4AFC0633030F4662309F48CC051
:10290000613079F799C0673819F0683851F73CC0E1
:102910001092FB06C7E0D7E013C08A819B81801725
:10292000910741F4888199810E943D07198218829C
:102930001B821A8224968091FB068F5F8093FB0690
:102940008091FB06843048F3E0E7F8E283819481CC
:102950008017910719F4148213821082BC96CF015C
:102960008597835A984290F3E1EBF8E208C0858995
:1029700096898017910711F4118A108A799689E255
:10298000EE32F807A1F7ADCFE6E04F3F5E07B1F5B5
:10299000CA010E941D6F892B89F11092FB06CCE2BF
:1029A000D0E08CE2D82E26C090E08C9FF0018D9F65
:1029B000F00D9C9FF00D1124E55BF74D85A1882358
:1029C000A1F08FEF96E00E946E708091FB068D9DC6
:1029D000C0011124855B974D90934A288093492824
:1029E00082E00E94FB080E9412138091FB068F5F19
:1029F0008093FB068091FB068230B0F2FAE2053C40
:102A00001F0709F06ECFC8010E941D6F892B09F4C2
:102A100068CF0E946B231BC04115510509F461CF9B
:102A200050934A284093492883E00E94FB080E9463
:102A300012130E94911255CF4115510509F451CF3F
:102A4000509346284093452885E00E94FB080E9449
:102A5000121347CF8091322390913323892B09F4AD
:102A600040CF80914823863031F48091772381FFD5
:102A700002C00E94911281E00E94FB0880913223E3
:102A800090913323892B09F42CCF0E94E01529CF94
:102A9000F7011182108283E0DF91CF911F910F9196
:102AA000FF90EF90DF900895CF93DF93EA010E94AB
:102AB0004908FC01009741F08091C7179091C81711
:102AC000968B858BD08FC78BCF01DF91CF910895E7
:102AD0000F931F93DF93CF93CDB7DEB760970FB6F9
:102AE000F894DEBF0FBECDBF8C01AB018FEF92E03B
:102AF0009A8389831C821B821E821D8218861F82F4
:102B00001A8619861C861B861E861D8680E091E02B
:102B1000988B8F87CE010196B8010E945415FC0155
:102B2000009711F0118B008BCF0160960FB6F894CF
:102B3000DEBF0FBECDBFCF91DF911F910F910895E2
:102B4000AC011092FD06E7E0F7E020E016C0322F5E
:102B50003F5F80819181892B71F42093FD06518321
:102B600040838091C7179091C81793838283CA01CD
:102B70000E945A0708953496232F243040F320935F
:102B8000FD0608950F931F93CF93DF938A010E9450
:102B9000B306EC01009771F08091C7179091C817A8
:102BA00099A788A71BA70AA78FE893E060E0AE016A
:102BB0000E944A6CCE01DF91CF911F910F91089531
:102BC000EF92FF920F931F9380914823863009F074
:102BD0005DC080913223909133238050954009F05D
:102BE00055C00EE912E0109333230093322392E094
:102BF000E92EE092462386E7F82EF09247231092C2
:102C00007B2310927A230E94AB0680959095909337
:102C10007B2380937A230E94121310933323009313
:102C20003223E0924623F0924723209147283091A7
:102C30004828C901FC01DC01AE59BD4F82E692E093
:102C40000D9001920197E1F78EE693E262E672E061
:102C50000E940A068091362380936E238091372349
:102C600080936F2380913823809370238091392340
:102C70008093712310927B2310927A230E94AB06DB
:102C80008095909590937B2380937A230E941213D2
:102C90001F910F91FF90EF9008950F931F93CF9383
:102CA000DF93162F042FE90120E620934223109290
:102CB000432310924523109244232AE32093482370
:102CC00020913C292093492324962D2F332727FD3B
:102CD0003A95249720934623AE014C5F40934723B7
:102CE000AAE5B3E2FC0180E101900D928150E1F789
:102CF0008AE493E26AE573E20E94641DE091EE06C5
:102D00008E2F90E0FC01EE5BFC4DDF01989610A742
:102D100011960C93119713961C921E9212978C0188
:102D200006591C4D0E94A70680959095F801938343
:102D30008283AC96D0933323C09332230E94121324
:102D4000DF91CF911F910F9108951F93CF93DF9340
:102D500022E433E280913C298093492380915A23D5
:102D60008F3F81F4D9015896F901389680E101909E
:102D70000D928150E1F78AE493E26AE573E20E94E2
:102D8000641D1BC0ABE1B7E0F901389680E101900A
:102D90000D928150E1F7EAE4F3E2DF01509680E121
:102DA0000D9001928150E1F7AAE5B3E2EBE1F7E083
:102DB00080E101900D928150E1F78091EE06882329
:102DC00009F459C00E945A69182F6091EE068823B1
:102DD00081F18AE380936A23611741F1E12FF0E0EA
:102DE00070E0CF01861B970B409132235091332323
:102DF000480F591F50933323409332234852504079
:102E000050934623485D5F4F242F28522093472339
:102E1000645D7F4F860F971F6E5B7C4D4E1B5F0B73
:102E20004C5250408E5B9C4D0E941F8B1093EE06BF
:102E300022C08AE38093482370E04091322350916E
:102E40003323461B570B509333234093322348526E
:102E5000504050934623485D5F4F842F88528093A3
:102E6000472362597C4D4C5250408EE693E20E94BB
:102E70001F8B1092EE06E091EE062E2F30E0F90146
:102E8000EE5BFC4DDF01989681E880A711961C92BD
:102E9000119713961C921E921297E901C659DC4DA8
:102EA0000E94A706809590959B838A83DF91CF919E
:102EB0001F910895CF92DF92EF92FF920F931F938D
:102EC000CF93DF93D82EC62E79018A01E091EE06CA
:102ED000EE2339F0F0E0E659FC4D80818A3349F465
:102EE00095C0809148238A3321F480916A2387FF1B
:102EF0008DC00E945A69282F8093EE06ABE1B7E09F
:102F0000EAE5F3E280E101900D928150E1F78091D2
:102F1000322390913323C0969093332380933223AE
:102F20008150954030F080E095E09093332380937A
:102F30003223822F90E0409132235091332340532B
:102F40005040481B590B880F991F8E589C4D62E4C6
:102F500073E20E941F8B80E68093422310924323EA
:102F600010924523109244238091EE06882321F08D
:102F70008AE380936A2303C08AE380934823809185
:102F80003C298093492380914A2390914B23892B9C
:102F900051F580914C2390914D23892B21F58091FF
:102FA0004E2390914F23892BF1F4809150239091DF
:102FB0005123892BC1F48091522390915323892B63
:102FC00091F48091542390915523892B61F4809141
:102FD000562390915723892B31F480915823909157
:102FE0005923892B99F0EAE5F3E2DF01509780E15C
:102FF0000D9001928150E1F780911B078F3F59F4AA
:1030000084E0D81619F432E0C31629F01092332365
:103010001092322335C08AE493E26BE177E00E949C
:10302000641DE091EE068E2F90E0FC01EE5BFC4DFE
:10303000D0A6C1A6EC01C259DC4DC801B7010E945F
:103040009F07688379838A839B8380913223909141
:1030500033238897909346238896885280934723FA
:10306000E091EE068E2F90E0FC01E659FC4D1382B4
:103070001282EF010E94A706809590959B838A8318
:10308000DF91CF911F910F91FF90EF90DF90CF9044
:103090000895DF92EF92FF920F931F93CF93DF93E8
:1030A0009091EE06E92FF0E0DF01A259BC4DFC90B3
:1030B000809149238F3F09F033C1E659FC4D81814E
:1030C000882309F02DC114968C9114978F3F09F431
:1030D00027C120E4D22EDF20F6FE05C080915A23BE
:1030E0008F3F09F41DC184E180932B0710922D07B7
:1030F00010922C07C0913223D091332340E050E04E
:1031000064E1292F30E0245D3F4F0FC0FC01EE5BEE
:10311000FC4D9181992309F4FDC08081823009F42E
:10312000AF01990F990F990F690FC901860F911D72
:103130008C179D0758F350932D0740932C076093ED
:103140002B07CD0104960E9416209093330780939D
:103150003207892B09F0E4C08091EE0690E08E588A
:103160009C4D0E9431228C0190932F0780932E0753
:10317000009709F4D5C0C0912C07D0912D07209756
:1031800011F420E00AC0BC016F5E7F4FCE010296B1
:1031900048E050E00E94098B282F80E8E82EEF20BD
:1031A000F80185A5882369F5209709F4B9C0D801ED
:1031B0005196FE01329688E001900D928150E1F720
:1031C000C0912E07D0912F07DD20C1F081E08DA79F
:1031D0001BA66091412970914229809143299091C9
:1031E000442928EE33E040E050E00E946F8ACE018F
:1031F0004996BA01A9010E9431735AC082E08DA795
:1032000057C0F5FC09C0222339F0813009F088C08D
:1032100082E0F80185A784C0209749F0D801519633
:10322000FE01329688E001900D928150E1F7DD2099
:10323000E1F000912E0710912F0781E0F80185A79A
:1032400060914129709142298091432990914429AC
:1032500028EE33E040E050E00E946F8AC8014996B2
:10326000BA01A9010E9431730EC080912C07909180
:103270002D07892B41F0222331F0E0912E07F091A8
:103280002F0782E085A7E0912E07F0912F0784A5F4
:10329000882371F0EE2061F48AE493E20E94CD204D
:1032A0009093310780933007009711F00E94D41C4F
:1032B000E0912E07F0912F07E4A680912E079091C0
:1032C0002F078E960E946E1C892B51F180912E073C
:1032D00090912F078E960E946E1C909333238093BB
:1032E000322380912E0790912F078E960E94621CA8
:1032F000BC0122E433E24091322350913323C901CF
:103300000E94168B80912E0790912F078E960E9417
:10331000891C0AC050932D0740932C0760932B07FC
:103320001092332310923223DF91CF911F910F918E
:10333000FF90EF90DF900895CF93DF93FC016083BF
:1033400082E08183EF012296AAE3B3E288E00D9048
:1033500009928150E1F7CF010A96FC0186E0DF0176
:103360001D928A95E9F7DF91CF9108950F931F93EE
:10337000CF93DF938C01EA011092EE0680E68093F2
:1033800042231092432310924523109244238AE350
:10339000809348239FEF90934923EAE5F3E2611578
:1033A0007105B9F490935A2382E0818313821282CB
:1033B000158214821782168211861086128681E089
:1033C000838794878D8585878E859F859787868758
:1033D00007C0DF01FB0180E101900D928150E1F710
:1033E00087E880936A23E091EE06F0E0EE5BFC4D07
:1033F00011A614A615A616A617A6F096DE0180E162
:103400000D9001928150E1F710924623CE010E9467
:103410001620892B09F055C00115110549F0AAE4C1
:10342000B3E2F80180E101900D928150E1F706C00E
:103430008AE493E26AE573E20E94641D80914A2364
:1034400090914B23892B79F580914C2390914D23BA
:10345000892B49F580914E2390914F23892B19F5A3
:103460008091502390915123892BE9F4809152232C
:1034700090915323892BB9F4809154239091552333
:10348000892B89F48091562390915723892B59F4E5
:103490008091582390915923892B29F4109233233A
:1034A0001092322347C088E2809347238091EE0632
:1034B00090E08E579C4D61E00E949C1980E590E061
:1034C00025C010924B2310924A2310924D23109244
:1034D0004C2310924F2310924E231092512310929E
:1034E000502310925323109252231092552310927E
:1034F000542310925723109256231092592310925E
:10350000582388E18093472380E490E0909333230D
:1035100080933223E091EE068E2F90E0FC01E65975
:10352000FC4D13821282EF010E94A70680959095B0
:103530009B838A83DF91CF911F910F910895DF9232
:10354000EF92FF920F931F93CF93DF9380914923C4
:103550008F3F09F0A7C18091EE06E82FF0E0EE5B07
:10356000FC4D80A98F3F09F49DC181A5882309F0F6
:1035700099C110922D0710922C0784E180932B079C
:1035800042E0D42E89C0F901EE5BFC4D8181882395
:1035900009F488C18081813009F06EC0F0932D0755
:1035A000E0932C0780914A2390914B23892B59F566
:1035B00080914C2390914D23892B29F580914E23A6
:1035C00090914F23892BF9F48091502390915123AE
:1035D000892BC9F48091522390915323892B99F41C
:1035E0008091542390915523892B69F4809156231F
:1035F00090915723892B39F4809158239091592326
:10360000892B09F44FC18AE493E20E943122EC0134
:1036100090932F0780932E0760912C0770912D07B0
:10362000009749F46E5F7F4F8AE493E240E022E026
:103630000E94A42221C032E0E32EF12CE60EF71EF8
:103640008C010F5E1F4FC701B80148E050E00E9497
:10365000098B009769F0D801F70188E001900D927D
:103660008150E1F7E0912E07F0912F07D5A604C015
:103670008DA5882309F4DDA680912B07E091EE0645
:10368000F0E0EE5BFC4DE80FF11D95A5990F990F49
:10369000990F980F90932B078091EE06482F50E0DA
:1036A00080912B079A01280F311D245D3F4F809197
:1036B0003223909133232817390708F464CFCA01C5
:1036C0008E589C4D0E9416209093330780933207AA
:1036D000892B09F4E7C080914A2390914B23892BD1
:1036E00059F580914C2390914D23892B29F5809198
:1036F0004E2390914F23892BF9F480915023909180
:103700005123892BC9F48091522390915323892B03
:1037100099F48091542390915523892B69F48091D9
:10372000562390915723892B39F4809158239091F7
:103730005923892B09F4B6C08AE493E20E9416202B
:10374000892B09F0AFC080915A238F3F09F03FC009
:1037500080915B238230D9F580915C2390915D2329
:10376000892BA9F580915E2390915F23892B79F5B0
:103770008091602390916123892B49F58091622388
:1037800090916323892B19F5809164238823F9F4A0
:10379000809165238130D9F4809166238F3FB9F4FD
:1037A000EAE5F3E2DF01509780E10D90019281504C
:1037B000E1F78091EE06E82FF0E0AAE4B3E2EE58DC
:1037C000FC4D80E101900D928150E1F722C08AE525
:1037D00093E20E9416202091320730913307281778
:1037E000390709F05FC0EAE5F3E2DF01509780E1B5
:1037F0000D9001928150E1F78091EE06E82FF0E004
:10380000AAE4B3E2EE58FC4D80E101900D928150A4
:10381000E1F71092EE0680E6809342231092432354
:1038200010924523109244231092462388E28093FD
:1038300047238AE3809348238FEF8093492388E8C6
:1038400080936A2310926B2380EE80936E23E09125
:103850003207F0913307A2E7B3E2319680E101909D
:103860000D928150E1F78091EE0690E08E579C4DCD
:1038700062E00E949C19E091EE068E2F90E0FC0120
:10388000E659FC4D13821282EF010E94A706809533
:1038900090959B838A8380E590E090933323809377
:1038A000322304C01092332310923223DF91CF9140
:1038B0001F910F91FF90EF90DF900895FC0111820E
:1038C00010820895FC0180819181009719F4E0E055
:1038D000F0E002C0FC013296CF010895FC01019096
:1038E000F081E02D309719F4E0E0F0E005C0EE5FE4
:1038F000FA4F0190F081E02DCF010895FC01019075
:10390000F081E02D309721F0EE5FFA4F71836083F4
:103910000895CF93DF93EC0188819981009761F03E
:103920008C5F9A4F0E941A716881798189E993E0CE
:103930000E94CE6D19821882DF91CF9108950F9366
:103940001F938C01FC016081718189E993E00E94E1
:10395000CE6DF801118210821F910F9108950F937F
:103960001F93CF93DF93EC018B0188819981892B81
:1039700019F020E030E012C089E993E00E94A06DC8
:1039800099838883009741F08C5F9A4FB8014FE983
:103990005CE19E010E945C7128813981C901DF913F
:1039A000CF911F910F910895FC01009709F01082AB
:1039B0000895FC01009709F010820895482F8AE4C9
:1039C00099E29093751180937411242F332727FD6A
:1039D000309515C08081882369F04F3F29F0818997
:1039E00090E08217930731F481818E3F19F4828130
:1039F000803879F07C96F0937511E0937411E09122
:103A00007411F091751189E2EA3BF80718F3E0E0D0
:103A1000F0E0CF010895482F8AE499E29093751160
:103A200080937411242F332727FD309515C0808192
:103A3000882369F04F3F29F0818990E0821793072E
:103A400031F481818E3F91F48281803879F47C96C3
:103A5000F0937511E0937411E0917411F091751168
:103A600089E2EA3BF80718F3E0E0F0E0CF010895BF
:103A7000FC01009709F010820895FC01009709F0FD
:103A800010820895FC011082089540E020E030E0AB
:103A9000FC01E20FF31F5081FB01E20FF31FE081F5
:103AA0005E1731F4485F2F5F3F4F403889F70AC0F7
:103AB000E527842F885FE7FD05C04F5F481711F0A9
:103AC000EE0FF9CF842F0895DF92EF92FF920F93BC
:103AD0001F93CF93DF93EC017B01FB0180818E3F2D
:103AE00021F48181803819F436C08F3FA1F18AE436
:103AF00099E29093751180937411DD2400E010E039
:103B000021C080818823A9F08189813091F481814D
:103B10008E3F19F48281803861F03196C701BF0170
:103B20000E94451D8D1528F000917411109175119A
:103B3000D82E80917411909175114C9690937511B7
:103B400080937411E0917411F091751189E2EA3B50
:103B5000F807B8F204C081E00E94DE1C8C01011558
:103B6000110589F4198218821B821A821D821C8217
:103B70001F821E82198618861B861A861D861C8641
:103B80001F861E8608C0DE01F801319680E1019093
:103B90000D928150E1F7DF91CF911F910F91FF902E
:103BA000EF90DF900895DF92EF92FF920F931F93B3
:103BB0000E940275D82E0E940275E0903D29F09077
:103BC0003E2900913F29109140293D2D20E0280FEA
:103BD000391F40E050E0CA01B901A80197010E94D5
:103BE0006F8A9B01AC0116950795F794E7942E0D0B
:103BF0003F1D401F511FB901CA011F910F91FF9036
:103C0000EF90DF900895CF93DF93DC01EC012896CD
:103C1000FB0188E0019009928150E1F718968C91A0
:103C2000189792E0892718968C93DF91CF91089589
:103C30000F931F93CF93DF938C0181EE9CE212C010
:103C40008881882351F0CE014396B80140E150E0CD
:103C50000E94098B009709F418828091801190913D
:103C600081118E969093811180938011C091801163
:103C7000D09181118EE2CD3AD80710F3DF91CF9128
:103C80001F910F910895CF92DF92EF92FF920F93C1
:103C90001F93CF93DF936C0181EE9CE2909381118F
:103CA0008093801100E010E0EE241CC088818823FE
:103CB00091F0F988FE1478F0BE016F5F7F4F4F2DB1
:103CC000469546954695C60150E00E94098B00979F
:103CD00011F48E0101C0FE2CAE96D0938111C093D9
:103CE0008011EF2CC0918011D09181118EE2CD3ADC
:103CF000D807E0F2C801DF91CF911F910F91FF909B
:103D0000EF90DF90CF9008950F931F93CF93DF93A1
:103D10008C0185E59AE290937B1180937A1116C00D
:103D20008881882371F04989469546954695CE014C
:103D30000196B80150E00E94098B009711F481E0D0
:103D40000EC06C96D0937B11C0937A11C0917A11FA
:103D5000D0917B118AE2C53CD80710F380E0DF9157
:103D6000CF911F910F9108950F931F93CF93DF93DE
:103D70008C0181E09BE290937D1180937C1112C0B5
:103D80008881882351F0BE016F5E7F4FC80148E0F3
:103D900050E00E94098B009779F0E096D0937D1156
:103DA000C0937C11C0917C11D0917D118CE2C13EF9
:103DB000D80730F3C0E0D0E0CE01DF91CF911F9162
:103DC0000F9108958F929F92AF92BF92DF92EF92E0
:103DD000FF920F931F93CF93DF935A014901D02E87
:103DE000F7011182108270E0469F8001479F100DFD
:103DF000569F100D1124080F191FD694D694D694EF
:103E0000EC0116C08881882371F0CE010196B401BF
:103E10004D2D50E00E94098B009741F4F701D183AA
:103E2000C08380E010C0F701D183C083CA0DDB1DC1
:103E3000C017D10738F3F70180819181892B11F4E4
:103E400082E001C081E0DF91CF911F910F91FF903F
:103E5000EF90DF90BF90AF909F908F900895EF927A
:103E6000FF920F939C018AEB99E263E041E150E0FD
:103E700000E878E7E72E71E1F72E0E94E21E882322
:103E800019F020E030E004C02091781130917911D0
:103E9000C9010F91FF90EF900895DF92EF92FF928A
:103EA0000F931F93182FD92E8AEB99E263E041E11B
:103EB00050E0212F3D2D00E8E8E7EE2EE1E1FE2E57
:103EC0000E94E21E813019F020E030E017C0E0913E
:103ED0007811F09179118083E0917811F091791146
:103EE0003196212F3D2DC901DC0180E10D90019219
:103EF0008150E1F72091781130917911C9011F911A
:103F00000F91FF90EF90DF900895EF92FF920F9343
:103F10009C018DEE99E266E041E150E000E8F6E7B1
:103F2000EF2EF1E1FF2E0E94E21E882319F020E01F
:103F300030E004C02091761130917711C9010F91C2
:103F4000FF90EF900895CF93DF93EC01009799F1E4
:103F50009FEF9093621182E080936311109265113C
:103F600010926411109267111092661110926911EB
:103F70001092681110926B1110926A1110926C11CC
:103F800081E080936D1190936E118E8580936F11F7
:103F90008F859889909371118093701182E691E1D9
:103FA0000E94851FFC0190937711809376110097F2
:103FB00009F010821882DF91CF910895DF92EF927D
:103FC000FF920F931F93182FD92E8DEE99E266E082
:103FD00041E150E0212F3D2D00E8A6E7EA2EA1E1C6
:103FE000FA2E0E94E21E813019F020E030E017C066
:103FF000E0917611F09177118083E0917611F09144
:1040000077113196212F3D2DC901DC0180E10D9002
:1040100001928150E1F72091761130917711C90119
:104020001F910F91FF90EF90DF900895EF92FF9214
:104030000F939C018AE499E264E04CE150E000E8CF
:10404000B4E7EB2EB1E1FB2E0E94E21E882319F0AB
:1040500020E030E004C02091741130917511C90145
:104060000F91FF90EF900895EF92FF920F939C01B4
:10407000062F85E59AE264E04CE150E07AE7E72E0E
:1040800071E1F72E0E94E21E882319F020E030E053
:1040900004C020917A1130917B11C9010F91FF90DA
:1040A000EF9008952F923F924F925F926F927F927E
:1040B0008F929F92AF92BF92CF92DF92EF92FF9238
:1040C0000F931F93DF93CF930F92CDB7DEB7582E88
:1040D000492E362E242E29833701480185E59AE2A0
:1040E00064E04CE150E0252D342D032DEAE7EE2E5F
:1040F000E1E1FE2E0E94E21E813019F020E030E066
:1041000037C0E0917A11F0917B118083E0917A11B0
:10411000F0917B113196252D342DC901DC0180E110
:104120000D9001928150E1F7E0917A11F0917B11AD
:10413000318AE0917A11F0917B11228AE0917A1113
:10414000F0917B118981838FE0917A11F0917B113D
:10415000638A748A858A968AE0917A11F0917B113C
:10416000A78AB08EC18ED28E20917A1130917B11A8
:10417000C9010F90CF91DF911F910F91FF90EF90A8
:10418000DF90CF90BF90AF909F908F907F906F9077
:104190005F904F903F902F900895EF92FF920F9372
:1041A0009C018DEC9AE262E04AE150E000E8FEE713
:1041B000EF2EF1E1FF2E0E94E21E882319F020E08D
:1041C00030E004C020917E1130917F11C9010F9120
:1041D000FF90EF9008959F92AF92BF92CF92DF929F
:1041E000EF92FF920F931F93182FD92EC62EB42E45
:1041F000A52E922E81EE9CE26AE04EE250E0212F45
:104200003D2D0C2DA0E8EA2EA1E1FA2E0E94E21E1F
:104210008130B1F5E0918011F09181118083E091BE
:104220008011F09181113196212F3D2DC901DC01C2
:1042300080E10D9001928150E1F7E0918011F091C1
:104240008111C18AE0918011F091811173962B2D1B
:104250003A2DC901DC0180E10D9001928150E1F716
:10426000E0918011F0918111928A8091801190915A
:1042700081118396FC018BE0DF011D928A95E9F79D
:1042800080918011909181111F910F91FF90EF907B
:10429000DF90CF90BF90AF909F900895AF92BF9264
:1042A000CF92DF92EF92FF920F931F93CF93DF9302
:1042B000EC015A016B01122F8AE499E264E04CE1AF
:1042C00050E09E0100E8B4E7EB2EB1E1FB2E0E9426
:1042D000E21E813019F020E030E05EC0E091741100
:1042E000F09175118083E0917411F0917511319600
:1042F000DE0180E10D9001928150E1F7E0917411AF
:10430000F0917511128BE0917411F0917511A11457
:10431000B104C104D10419F481E0838B0AC0138A6B
:1043200080917411909175114496B601A5010E9477
:104330003173E0917411F091751121E0218B9FEFA1
:104340009093621182E08093631110926511109234
:1043500064111092671110926611109269111092F7
:10436000681110926B1110926A1110926C112093C7
:104370006D1190936E118D8580936F118E859F8541
:10438000909371118093701182E691E10E94DE1F7B
:104390002091741130917511C901DF91CF911F9156
:1043A0000F91FF90EF90DF90CF90BF90AF90089566
:1043B0009F92AF92BF92CF92DF92EF92FF920F93B4
:1043C0001F93182F992E5A016B018DEC9AE262E02F
:1043D0004AE150E0212F392D00E87EE7E72E71E118
:1043E000F72E0E94E21E813019F020E030E02EC04E
:1043F000E0917E11F0917F118083E0917E11F09128
:104400007F113196212F392DC901DC0180E10D90FA
:1044100001928150E1F7E0917E11F0917F11A1149A
:10442000B104C104D10461F0CF014196B601A501E8
:104430000E943173E0917E11F0917F11118E02C0C4
:1044400081E0818F20917E1130917F11C9011F91F0
:104450000F91FF90EF90DF90CF90BF90AF909F9023
:104460000895EF92FF920F931F939C0181E09BE2CE
:104470006AE040E350E000E8ECE7EE2EE1E1FE2EDA
:104480000E94E21E882319F020E030E00DC0009168
:104490007C1110917D110E94D842F80192A781A74A
:1044A00020917C1130917D11C9011F910F91FF90D6
:1044B000EF90089510927311109272118DEC9AE2A0
:1044C00022C080818823D1F0CF0101960E94312241
:1044D000FC01009751F085A5882339F020917E11C9
:1044E00030917F112F5F3F4F1EC080917E119091C0
:1044F0007F110196909373118093721180917E11B8
:1045000090917F114A9690937F1180937E11E09154
:104510007E11F0917F118BE2E130F80790F220914B
:10452000721130917311C9010895CF93DF93EC019B
:10453000009739F018828E960E94891CCE010E9445
:10454000A253DF91CF9108958F929F92AF92BF9225
:10455000CF92DF92EF92FF920F931F93CF93DF934F
:10456000B82EA92E6B01942E822E81E09BE26AE088
:1045700040E350E02B2D3A2D00E8FCE7EF2EF1E16F
:10458000FF2E0E94E21E90E08130910509F06BC081
:10459000E0917C11F0917D1181E08083E0917C11AC
:1045A000F0917D1131962B2D3A2DC901DC0180E16E
:1045B0000D9001928150E1F780917C1190917D11D5
:1045C000C114D10449F0DC015196F60188E0019054
:1045D0000D928150E1F707C04196FC0188E0DF01B0
:1045E0001D928A95E9F7E0917C11F0917D1194A6D6
:1045F000E0917C11F0917D1185A680917C119091C4
:104600007D118E960E945E1C80917C1190917D118F
:10461000499640E050E060E070E00E943173809184
:104620007C1190917D11819640E050E060E070E057
:104630000E943173E0917C11F0917D1113A680915D
:104640007C1190917D110E94A25300917C111091D8
:104650007D110E94D842F80192A781A720917C1178
:1046600030917D112AC0029731F50E94D8427C0119
:10467000C1E0DBE200E010E013C08881882369F02C
:10468000CE0101960E94CD20892B39F489A59AA5E7
:104690008E159F0510F48E0101C0C701E0967C01C4
:1046A000FCE2C13EDF0749F70115110521F0C80101
:1046B0000E9495225ACF20E030E0C901DF91CF91CE
:1046C0001F910F91FF90EF90DF90CF90BF90AF9030
:1046D0009F908F900895EF92FF920F931F938AE41B
:1046E00099E217C08081882379F08389882361F457
:1046F000CF0144960E94FB72892B31F08091741196
:10470000909175110E94A31F809174119091751161
:104710004C969093751180937411E0917411F091FF
:10472000751189E2EA3BF807E8F28DEC9AE218C0CD
:104730008081882381F0818D882369F4CF0141969F
:104740000E94FB72892B39F0E0917E11F0917F116C
:10475000309709F0108280917E1190917F114A96D6
:1047600090937F1180937E11E0917E11F0917F11E3
:104770008BE2E130F807E0F281E09BE290937D115B
:1047800080937C11B2E0EB2EA4E0FA2EB4C08081BD
:10479000882309F4A7C085A5813069F1813030F004
:1047A0008330B1F1843009F09DC04DC083A58330C2
:1047B00010F0CF015EC0CF0181960E94FB72892B61
:1047C00009F490C08091322390913323892B09F012
:1047D00089C0E0917C11F0917D1183A58F5F83A743
:1047E00040917C1150917D114F5F5F4F80E090E0D0
:1047F00060E070E05DC0CF0149960E94FB72892B9A
:1048000009F470C0E0917C11F0917D11E5A66AC0B9
:10481000CF0149960E94FB72892B09F463C0E09195
:104820007C11F0917D11F5A6E0917C11F0917D1144
:1048300013A680917C1190917D11819640E050E00B
:1048400060E070E04DC083A58330B0F0CF010196E9
:104850000E94CD20FC0190937F1180937E110097E0
:1048600021F0818D882309F4108280917C11909130
:104870007D110E94952236C0CF0181960E94FB7265
:10488000892B81F18091322390913323892B51F52B
:10489000E0917C11F0917D1183A58F5F83A74091FA
:1048A0007C1150917D114F5F5F4F80E090E0BA0125
:1048B0000E94B61900917C1110917D1160914529DB
:1048C00070914629809147299091482928EE33E03C
:1048D00040E050E00E946F8AC8018196BA01A901A8
:1048E0000E94317380917C1190917D11C0969093BC
:1048F0007D1180937C11E0917C11F0917D118CE20F
:10490000E13EF80708F443CF85EC9AE20E94797003
:104910001F910F91FF90EF900895AF92BF92CF92A9
:10492000DF92EF92FF920F931F9380EE91E0E1E010
:10493000FBE2DF019C011D9221503040E1F784E34E
:10494000EDECFAE2DF011D928A95E9F780E7E5E5F3
:10495000FAE2DF011D928A95E9F78BE191E0E8E345
:10496000F9E2DF019C011D9221503040E1F78CEC0F
:1049700091E0E1EEFCE2DF019C011D92215030400C
:10498000E1F78CE18093542A82E18093532A80E0FE
:1049900095E0A0E0B0E08093382990933929A09366
:1049A0003A29B0933B2980E480933C2980EC97E23C
:1049B000A9E0B0E080933D2990933E29A0933F2940
:1049C000B09340290E94D31D6093412970934229DE
:1049D000809343299093442980E197E2A0E0B0E0DE
:1049E0008093452990934629A0934729B09348295D
:1049F000109249298EEF90E8909363118093621191
:104A00001092651110926411109267111092661144
:104A1000109269111092681182E691E160E440E021
:104A200020E0EE24FF248701AA24BB2465010E9414
:104A30005220AAE6B1E1EAE3F3E288E001900D92A8
:104A40008150E1F780916A1192E0892780936A1181
:104A500082E691E140E050E060E070E021E00E94F9
:104A60004E210FEF12E01093631100936211109228
:104A700065111092641110926711109266111092D4
:104A800069111092681110926B1110926A111092B4
:104A90006D1110926C1110926F1110926E1180E0D6
:104AA00091E0909371118093701182E691E10E94E0
:104AB000DE1F109363110093621110926511109222
:104AC0006411109267111092661110926911109280
:104AD000681110926B1110926A1110926D11109260
:104AE0006C1110926F1110926E1180E092E0909311
:104AF00071118093701182E691E10E94DE1F85ECB6
:104B00009AE26CE070E00E9484701F910F91FF9018
:104B1000EF90DF90CF90BF90AF9008959093831166
:104B2000809382110895FC01868190E0019721E035
:104B300030E002C0220F331F8A95E2F7C9010895C1
:104B40008F929F92AF92BF92CF92DF92EF92FF929D
:104B50000F931F93CF93DF93EC015A014901680132
:104B600088819981009729F08B5E914009F099C066
:104B700052C0188619861A861B861F821E82809153
:104B8000C7179091C8179B838A8310925F12109267
:104B90005B1210925C1210925D1210925E121092D3
:104BA0005A120E94722CF60190878783B501A401E6
:104BB0000E94023AFC019D838C83009709F464C033
:104BC0008CE299E290A3878FEC81FD81D2A3C1A3EF
:104BD000488559856A857B854115510561057105B3
:104BE00031F0C60120E000E410E00E944B2E0C8161
:104BF0001D81B8016B5D7F4FC6010E946C35F801C5
:104C000094A383A38C819D810E9481398BEE91E0D6
:104C10009983888302C0623811F081E045C08E819B
:104C20009F81009789F16BE572E14FE552E120E049
:104C300030E000E010E00E94012E20915B123091E4
:104C40005C1240915D1250915E1288859985AA850B
:104C5000BB85281739074A075B0781F48E819F813E
:104C6000F701099588859985AA85BB850196A11DBF
:104C7000B11D88879987AA87BB870AC080915A127D
:104C80008F5F80935A1204C01982188282E00CC090
:104C900080915F12882329F080915A12843008F4A1
:104CA00080CF1982188283E0DF91CF911F910F91FD
:104CB000FF90EF90DF90CF90BF90AF909F908F903C
:104CC00008956F927F929F92AF92BF92CF92DF92A0
:104CD000EF92FF920F931F93DF93CF93CDB7DEB781
:104CE0002E970FB6F894DEBF0FBECDBF3C01FC017E
:104CF00080819181009729F0835B914009F094C2F3
:104D000011C08CE194E00E94FF3D0E944C3986E185
:104D100093E30E94313983EB91E0F3019183808327
:104D200081E086C280912E29681709F077C210921F
:104D30006112109260128091422881FFECCF609145
:104D4000472870914828409132235091332380EFB7
:104D500091E10E940D329093611280936012892B31
:104D600009F0FDC18091F6118150843008F0C0C176
:104D7000E091EE06F0E0E659FC4D408151818091D2
:104D8000F7119091F8116AE473E20E94023A90934D
:104D9000851180938411892B09F49DC11B821C828B
:104DA0001D821E8280E490E09A8389831F82188688
:104DB00019861A861B861C861D861E868091F31115
:104DC0009091F411892B49F42091F7113091F81149
:104DD00086E891E162E070E007C00E94722C9C01BD
:104DE00086E891E161E070E045E40E94D031809175
:104DF000F9119091FA11A091FB11B091FC1193FF60
:104E00001AC04091241286E891E165E272E150E017
:104E10000E94243080918F1190919011A091911156
:104E2000B0919211986080938F1190939011A093FC
:104E30009111B093921180EF91E1BE016D5F7F4FB0
:104E400040E050E09E012F5F3F4F8E01095F1F4FF2
:104E50000E94012E892B89F089819A8181349105E4
:104E600010F080E490E09A8389838F819885A985EA
:104E7000BA858B879C87AD87BE87E0918211F091C0
:104E80008311309709F41EC140918411509185110E
:104E90004C5A5F4F29813A8180EF91E166E871E1D8
:104EA0008E01055F1F4F0995892B09F4ECC0809195
:104EB000601290916112892B09F0E5C02091F911DF
:104EC0003091FA114091FB115091FC1143FF1BC02E
:104ED00080918C1187FD17C080918F119091901156
:104EE000A0919111B0919211A3FD0DC081EA90E0C3
:104EF000909361128093601281EA93E0909347054A
:104F000080934605C0C0EB84FC840D851E8541FF5F
:104F10008FC08F819885A985BA85E816F9060A079A
:104F20001B0709F056C08091EC119091ED119C0186
:104F300040E050E0E216F3060407150750F082E85F
:104F400080938C1186E891E161EB73E04FE050E0D3
:104F500098C0E981FA81AB80BC80CD80DE80992445
:104F60002E193F09400B510BCF01A0E0B0E0821792
:104F70009307A407B50710F49924939486E891E168
:104F8000B601A501292D8F010E944B2E8F81988596
:104F9000A985BA856091EE117091EF11680F791FA4
:104FA0002091EC113091ED1140E050E0281B390BBD
:104FB0004A0B5B0B89819A81A0E0B0E082179307CE
:104FC000A407B50710F49C01AD0186E891E1A901A1
:104FD00058C04B815C816D817E81FFEFEF16FFEF42
:104FE000FF06FFEF0F07FFEF1F0759F4E0E0F0E0C7
:104FF0002091EC113091ED1189819A8182179307EC
:1050000010F4E1E0F0E009811A8186E891E12E2FA9
:105010000E944B2E49815A818091EC119091ED11A3
:105020004817590780F56091EE117091EF1127C074
:10503000E114F1040105110531F120E08FEFE816CC
:105040008FEFF8068FEF08078FEF180709F021E0C0
:1050500086E891E140E050E060E070E000E410E0BC
:105060000E944B2E6091EE117091EF114091EC1166
:105070005091ED114134510510F040E450E086E8C4
:1050800091E10E94152F8091601290916112892BFD
:1050900009F065C00091841110918511B8016B5D14
:1050A0007F4F86E891E10E946C35F80194A383A3B9
:1050B000892B09F054C081EC90E0909361128093A9
:1050C00060124DC081EA90E090936112809360126B
:1050D00081EC93E008C083EA90E0909361128093A2
:1050E000601282ED93E0909347058093460537C0A8
:1050F0008091F3119091F4118230910589F003971A
:1051000079F4E091EE06F0E0E659FC4D60817181A2
:105110004091F7115091F8118AE493E20E94C13A4C
:105120008091F7119091F8110E945539FC019093EC
:10513000851180938411009771F0078D10A1E1A073
:10514000F2A00E946C390115110529F0C70160EF2A
:1051500071E1F80109951092851110928411209146
:105160006012309161122115310551F48091841142
:1051700090918511009709F4CECD0E948139CBCD55
:105180008091841190918511223C310519F40E947F
:105190006C39C1CD0E946C3980916012909161127E
:1051A000803C910530F080EA90E09093611280930A
:1051B00060122091F7113091F81180EF91E162E0D7
:1051C00070E0409160120E94D0316091460570916C
:1051D0004705FB01DF010D900020E9F71197AE1B99
:1051E000BF0B80EF91E1AD010E94152FE091EE061B
:1051F000F0E0E659FC4DE080F180009147281091E5
:10520000482880EF91E1B8010E946C359C018AE446
:1052100093E2B701A8010E9406397DCD683809F0F4
:105220007ACD0E94E63977CDF3011182108283E0B6
:105230002E960FB6F894DEBF0FBECDBFCF91DF9193
:105240001F910F91FF90EF90DF90CF90BF90AF90A4
:105250009F907F906F900895FC0177836683828191
:1052600093810E94AA6C08952F923F924F925F9271
:105270006F927F928F929F92AF92BF92CF92DF9266
:10528000EF92FF920F931F93DF93CF93CDB7DEB7CB
:1052900062970FB6F894DEBF0FBECDBF78876F83DD
:1052A0005A874987190128011A82198262EE73E030
:1052B000AE014F5F5F4F0E94B8319C838B830E9489
:1052C000A03C0E94466E9E838D83AA24BB24EE24BC
:1052D000FF2491012F5F3F4F3C872B874B815C81DF
:1052E000415050405E874D87BBC18B819C81892B8B
:1052F00071F1AD81BE8116968D919C91179765EEE7
:1053000073E00E94618B8C01009709F4A2C1C980EF
:10531000DA800496B6014D855E850E94098B009760
:1053200009F097C1EB81FC81CE0EDF1E0894C10805
:10533000D108D6016C916A3251F0E00FF11F8381E0
:10534000681709F086C18481823209F082C1950113
:1053500040E050E0F20180819181A281B381281761
:1053600039074A075B076CF0E214F30450F4E9854F
:10537000FA85EE0DFF1D5CE3652E60820894E11C4A
:10538000F11CB5016F5F7F4F9B0140E050E0F201DF
:1053900080819181A281B381281739074A075B0771
:1053A0006CF0E214F30450F4E985FA85EE0DFF1D6C
:1053B0004FE2642E60820894E11CF11C5B010894AA
:1053C000A11CB11CAD81BE8114966D917C91159785
:1053D000DB010D900020E9F78D0101501040061B04
:1053E000170B0A0D1B1D380188249924D2012D9119
:1053F0003D914D915C912F87388B498B5A8B2615A7
:105400003705480559050CF045C0EDB7FEB738978C
:105410000FB6F894FEBF0FBEEDBF319689859A8511
:105420008E0D9F1DADB7BEB712969C938E931197AC
:105430008B859C858E199F09938382832AEE33E0A6
:1054400035832483C501A0E0B0E02F8538894989E0
:105450005A89281B390B4A0B5B0BDA01C90157FF2C
:1054600004C080E090E0A0E0B0E0680F791F77838F
:1054700066830E94E58BE80EF91E4DB75EB7485F64
:105480005F4F0FB6F8945EBF0FBE4DBFE214F3043A
:1054900008F0EBC0F20180819181A281B38168168E
:1054A00079068A069B066CF0E214F30450F4E98551
:1054B000FA85EE0DFF1D3EE3632E60820894E11C29
:1054C000F11C58010894A11CB11CAD81BE81169637
:1054D000ED91FC9117978081882309F485C095018F
:1054E00040E050E0F20180819181A281B3812817D0
:1054F00039074A075B076CF0E214F30450F4E985BE
:10550000FA85EE0DFF1D2BE3622E60820894E11CEC
:10551000F11C85010F5F1F4FAD81BE8116966D9105
:105520007C911797DB010D900020E9F75D0108944D
:10553000A108B108A61AB70AA00EB11EF201208177
:10554000318142815381C501A0E0B0E028173907BD
:105550004A075B070CF048C08DB79EB708970FB697
:10556000F8949EBF0FBE8DBFEDB7FEB7319689850B
:105570009A858E0D9F1DADB7BEB712969C938E93E4
:1055800011978B859C858E199F09938382839AEE50
:10559000692E93E0792E75826482C801A0E0B0E0A4
:1055A00039014A01681A790A8A0A9B0AD401C3019F
:1055B00097FE04C080E090E0A0E0B0E0680F791FA3
:1055C000778366830E94E58BE80EF91E2DB73EB700
:1055D000285F3F4F0FB6F8943EBF0FBE2DBFE214B9
:1055E000F30410F0580141C0AD81BE818D919C91B2
:1055F000892BE9F0950140E050E0F2018081918132
:10560000A281B381281739074A075B076CF0E214BF
:10561000F30450F4E985FA85EE0DFF1D8CE2682E47
:1056200060820894E11CF11C0894A11CB11CE214D6
:10563000F30478F0C5018E199F09A0E0B0E0F201F3
:105640002081318142815381281739074A075B073E
:1056500064F0AD81BE810D90BC91A02DBE83AD8361
:10566000ED81FE81EF2B09F040CEE114F10471F0E1
:105670008F81988569857A85A7010E94152F8F8172
:10568000988568E270E00E94962C10C0AB2871F0FB
:105690008F81988562E870E00E947E2C8F819885CA
:1056A00061EB73E04FE050E00E94152F6D807E802B
:1056B000672831F48FEF9FEFAFEFBFEFF2010CC01F
:1056C000910140E050E0F20180819181A281B3819B
:1056D000820F931FA41FB51F80839183A283B3837E
:1056E00062960FB6F894DEBF0FBECDBFCF91DF91AB
:1056F0001F910F91FF90EF90DF90CF90BF90AF90F0
:105700009F908F907F906F905F904F903F902F90E1
:1057100008958BEF93E060E070E00E947D6C089547
:105720009C01FA016F30710550F4862F8F70922F13
:105730009295907F892B808321E030E00DC084E03A
:10574000220F331F8A95E1F7822F8F608083862F87
:105750008F50818322E030E0C90108959F92AF927B
:10576000BF92CF92DF92EF92FF920F931F93CF934E
:10577000DF935C017B016A01C0E0D0E09EE0992EDE
:1057800018C0C9016EE070E00E945C8A092D081BF8
:1057900010E0A6014C0F5D1F2196C80160E070E08B
:1057A0000E94902BF70180819181800F911F91833E
:1057B0008083F70120813181C501821B930B4097C3
:1057C00004F7CE01DF91CF911F910F91FF90EF90E1
:1057D000DF90CF90BF90AF909F9008958F929F924F
:1057E000AF92BF92CF92DF92EF92FF920F931F93EF
:1057F000DF93CF9300D0CDB7DEB74C017A836983B6
:105800005A0178018901BE016F5F7F4F0E94AE2B64
:105810009C01D801C70180709070A0700097A1050D
:10582000B10511F469010CC069010894C11CD11CB7
:10583000F501EC0DFD1D812F9927AA27BB27808339
:10584000D801C701807090700097A105B10551F093
:105850000894C11CD11CF501EC0DFD1DC801AA273F
:10586000BB278083D801C70180700097A105B105CF
:1058700061F00894C11CD11CF501EC0DFD1DBB2786
:10588000A12F902F8F2D808305C0E114F104010515
:10589000110539F00894C11CD11CF501EC0DFD1D5A
:1058A000E08289819A81B601621B730BA20EB31E3E
:1058B0009401281B390BC901A5010E94902B9C0162
:1058C0002C0D3D1DC9010F900F90CF91DF911F91BD
:1058D0000F91FF90EF90DF90CF90BF90AF909F908F
:1058E0008F90089520916412309165122F5F3F4F81
:1058F0003093651220936412C9010895FC016F3F33
:10590000710521F018F020E030E003C0668321E04B
:1059100030E0C9010895FC01818581FD03C02FEFAE
:105920003FEF02C025853685C9010895FC017687C1
:10593000658781859285A385B485826081879287FA
:10594000A387B48781E090E00895CF93DF93EB01C4
:10595000FC0181859285A385B48594FD03C020E078
:1059600030E007C0FE96F983E883FE9785AD282FC7
:1059700030E0C901DF91CF910895CF93DF93EC011F
:10598000EDADE230A0F4F0E07F96EE0FFF1FE80FE0
:10599000F91F718360838DAD8F5F8DAF89859A8587
:1059A000AB85BC85906189879A87AB87BC878DADB5
:1059B00090E0DF91CF910895CF93DF93EB01FC014D
:1059C000818582FD05C08CE390E0A0E0B0E004C0DA
:1059D00087859089A189B28988839983AA83BB83AB
:1059E00081E090E0DF91CF910895FC014787508BD3
:1059F000618B728B81859285A385B4858460818754
:105A00009287A387B48781E090E00895DB01FC01D1
:105A1000818584FD03C020E030E007C07896ED93D7
:105A2000FC9378978789282F30E0C9010895CF9398
:105A3000DF93EB01FC0181859285A385B48595FDFB
:105A400003C020E030E007C0ED5BFF4FF983E8833F
:105A50008291282F30E0C901DF91CF910895FC0198
:105A60002185328543855485B5E15695479537950F
:105A70002795BA95D1F721703070C9010895FC01BE
:105A800081859285A385B485A06281879287A3874B
:105A9000B48781E090E00895CF93DF93EB01FC01A0
:105AA00081859285A385B48593FD03C020E030E015
:105AB00007C0F596F983E883F59784A9282F30E08D
:105AC000C901DF91CF910895DB01FC01818583FD40
:105AD00003C020E030E006C0858996898D939C93B1
